{
  "_format": "hh3-artifact-1",
  "contractName": "RealEstate",
  "sourceName": "contracts/RealEstate.sol",
  "abi": [
    {
      "inputs": [
        {
          "internalType": "uint256",
          "name": "_itemPrice",
          "type": "uint256"
        },
        {
          "internalType": "uint256",
          "name": "_stock",
          "type": "uint256"
        }
      ],
      "stateMutability": "nonpayable",
      "type": "constructor"
    },
    {
      "inputs": [
        {
          "internalType": "uint256",
          "name": "amount",
          "type": "uint256"
        }
      ],
      "name": "addItem",
      "outputs": [],
      "stateMutability": "nonpayable",
      "type": "function"
    },
    {
      "inputs": [
        {
          "internalType": "uint256",
          "name": "price",
          "type": "uint256"
        }
      ],
      "name": "buyItem",
      "outputs": [],
      "stateMutability": "payable",
      "type": "function"
    },
    {
      "inputs": [],
      "name": "buyerCount",
      "outputs": [
        {
          "internalType": "uint256",
          "name": "",
          "type": "uint256"
        }
      ],
      "stateMutability": "view",
      "type": "function"
    },
    {
      "inputs": [
        {
          "internalType": "uint256",
          "name": "",
          "type": "uint256"
        }
      ],
      "name": "buyers",
      "outputs": [
        {
          "internalType": "address",
          "name": "",
          "type": "address"
        }
      ],
      "stateMutability": "view",
      "type": "function"
    },
    {
      "inputs": [],
      "name": "getBalance",
      "outputs": [
        {
          "internalType": "uint256",
          "name": "",
          "type": "uint256"
        }
      ],
      "stateMutability": "view",
      "type": "function"
    },
    {
      "inputs": [
        {
          "internalType": "uint256",
          "name": "buyerId",
          "type": "uint256"
        }
      ],
      "name": "getBuyer",
      "outputs": [
        {
          "internalType": "address",
          "name": "",
          "type": "address"
        }
      ],
      "stateMutability": "view",
      "type": "function"
    },
    {
      "inputs": [],
      "name": "itemPrice",
      "outputs": [
        {
          "internalType": "uint256",
          "name": "",
          "type": "uint256"
        }
      ],
      "stateMutability": "view",
      "type": "function"
    },
    {
      "inputs": [],
      "name": "owner",
      "outputs": [
        {
          "internalType": "address",
          "name": "",
          "type": "address"
        }
      ],
      "stateMutability": "view",
      "type": "function"
    },
    {
      "inputs": [],
      "name": "stock",
      "outputs": [
        {
          "internalType": "uint256",
          "name": "",
          "type": "uint256"
        }
      ],
      "stateMutability": "view",
      "type": "function"
    }
  ],
  "bytecode": "0x608060405234801561000f575f5ffd5b50604051610827380380610827833981810160405281019061003191906100c3565b335f5f6101000a81548173ffffffffffffffffffffffffffffffffffffffff021916908373ffffffffffffffffffffffffffffffffffffffff16021790555081600181905550806002819055505f6003819055505050610101565b5f5ffd5b5f819050919050565b6100a281610090565b81146100ac575f5ffd5b50565b5f815190506100bd81610099565b92915050565b5f5f604083850312156100d9576100d861008c565b5b5f6100e6858286016100af565b92505060206100f7858286016100af565b9150509250929050565b6107198061010e5f395ff3fe608060405260043610610085575f3560e01c8063bdf3c4ae11610058578063bdf3c4ae14610143578063be6340451461016d578063dac6db1c14610195578063e7fb74c7146101bf578063f2aa8218146101db57610085565b806312065fe0146100895780635bf608b8146100b35780638da5cb5b146100ef5780639e0cea0514610119575b5f5ffd5b348015610094575f5ffd5b5061009d610217565b6040516100aa919061043e565b60405180910390f35b3480156100be575f5ffd5b506100d960048036038101906100d49190610485565b61021e565b6040516100e691906104ef565b60405180910390f35b3480156100fa575f5ffd5b50610103610257565b60405161011091906104ef565b60405180910390f35b348015610124575f5ffd5b5061012d61027b565b60405161013a919061043e565b60405180910390f35b34801561014e575f5ffd5b50610157610281565b604051610164919061043e565b60405180910390f35b348015610178575f5ffd5b50610193600480360381019061018e9190610485565b610287565b005b3480156101a0575f5ffd5b506101a96102e4565b6040516101b6919061043e565b60405180910390f35b6101d960048036038101906101d49190610485565b6102ea565b005b3480156101e6575f5ffd5b5061020160048036038101906101fc9190610485565b6103f6565b60405161020e91906104ef565b60405180910390f35b5f47905090565b5f60045f8381526020019081526020015f205f9054906101000a900473ffffffffffffffffffffffffffffffffffffffff169050919050565b5f5f9054906101000a900473ffffffffffffffffffffffffffffffffffffffff1681565b60035481565b60025481565b5f81116102c9576040517f08c379a00000000000000000000000000000000000000000000000000000000081526004016102c090610562565b60405180910390fd5b8060025f8282546102da91906105ad565b9250508190555050565b60015481565b5f6002541161032e576040517f08c379a00000000000000000000000000000000000000000000000000000000081526004016103259061062a565b60405180910390fd5b803414610370576040517f08c379a000000000000000000000000000000000000000000000000000000000815260040161036790610692565b60405180910390fd5b600160025f82825461038291906106b0565b92505081905550600160035f82825461039b91906105ad565b925050819055503360045f60035481526020019081526020015f205f6101000a81548173ffffffffffffffffffffffffffffffffffffffff021916908373ffffffffffffffffffffffffffffffffffffffff16021790555050565b6004602052805f5260405f205f915054906101000a900473ffffffffffffffffffffffffffffffffffffffff1681565b5f819050919050565b61043881610426565b82525050565b5f6020820190506104515f83018461042f565b92915050565b5f5ffd5b61046481610426565b811461046e575f5ffd5b50565b5f8135905061047f8161045b565b92915050565b5f6020828403121561049a57610499610457565b5b5f6104a784828501610471565b91505092915050565b5f73ffffffffffffffffffffffffffffffffffffffff82169050919050565b5f6104d9826104b0565b9050919050565b6104e9816104cf565b82525050565b5f6020820190506105025f8301846104e0565b92915050565b5f82825260208201905092915050565b7f416d6f756e74206d7573742062652067726561746572207468616e20300000005f82015250565b5f61054c601d83610508565b915061055782610518565b602082019050919050565b5f6020820190508181035f83015261057981610540565b9050919050565b7f4e487b71000000000000000000000000000000000000000000000000000000005f52601160045260245ffd5b5f6105b782610426565b91506105c283610426565b92508282019050808211156105da576105d9610580565b5b92915050565b7f4e6f204974656d000000000000000000000000000000000000000000000000005f82015250565b5f610614600783610508565b915061061f826105e0565b602082019050919050565b5f6020820190508181035f83015261064181610608565b9050919050565b7f4d6f6e657920646f65736e2774206d61746368000000000000000000000000005f82015250565b5f61067c601383610508565b915061068782610648565b602082019050919050565b5f6020820190508181035f8301526106a981610670565b9050919050565b5f6106ba82610426565b91506106c583610426565b92508282039050818111156106dd576106dc610580565b5b9291505056fea26469706673582212209609abe44f2339c483c0a79856e1430f67f4a0c2b40446b938165df210b25d9264736f6c634300081c0033",
  "linkReferences": {},
  "deployedLinkReferences": {},
  "immutableReferences": {},
  "inputSourceName": "project/contracts/RealEstate.sol",
  "buildInfoId": "solc-0_8_28-3bc4c4f7e99ce9d89de81af1d4506f8410892e21"
}