{
  "_format": "hh3-artifact-1",
  "contractName": "RealEstate",
  "sourceName": "contracts/RealEstate.sol",
  "abi": [
    {
      "inputs": [
        {
          "internalType": "uint256",
          "name": "_itemPrice",
          "type": "uint256"
        },
        {
          "internalType": "uint256",
          "name": "_stock",
          "type": "uint256"
        }
      ],
      "stateMutability": "nonpayable",
      "type": "constructor"
    },
    {
      "inputs": [
        {
          "internalType": "uint256",
          "name": "amount",
          "type": "uint256"
        }
      ],
      "name": "addItem",
      "outputs": [],
      "stateMutability": "nonpayable",
      "type": "function"
    },
    {
      "inputs": [],
      "name": "buyItem",
      "outputs": [],
      "stateMutability": "payable",
      "type": "function"
    },
    {
      "inputs": [],
      "name": "buyerCount",
      "outputs": [
        {
          "internalType": "uint256",
          "name": "",
          "type": "uint256"
        }
      ],
      "stateMutability": "view",
      "type": "function"
    },
    {
      "inputs": [
        {
          "internalType": "uint256",
          "name": "",
          "type": "uint256"
        }
      ],
      "name": "buyers",
      "outputs": [
        {
          "internalType": "address",
          "name": "",
          "type": "address"
        }
      ],
      "stateMutability": "view",
      "type": "function"
    },
    {
      "inputs": [],
      "name": "getBalance",
      "outputs": [
        {
          "internalType": "uint256",
          "name": "",
          "type": "uint256"
        }
      ],
      "stateMutability": "view",
      "type": "function"
    },
    {
      "inputs": [
        {
          "internalType": "uint256",
          "name": "buyerId",
          "type": "uint256"
        }
      ],
      "name": "getBuyer",
      "outputs": [
        {
          "internalType": "address",
          "name": "",
          "type": "address"
        }
      ],
      "stateMutability": "view",
      "type": "function"
    },
    {
      "inputs": [],
      "name": "itemPrice",
      "outputs": [
        {
          "internalType": "uint256",
          "name": "",
          "type": "uint256"
        }
      ],
      "stateMutability": "view",
      "type": "function"
    },
    {
      "inputs": [],
      "name": "owner",
      "outputs": [
        {
          "internalType": "address",
          "name": "",
          "type": "address"
        }
      ],
      "stateMutability": "view",
      "type": "function"
    },
    {
      "inputs": [],
      "name": "stock",
      "outputs": [
        {
          "internalType": "uint256",
          "name": "",
          "type": "uint256"
        }
      ],
      "stateMutability": "view",
      "type": "function"
    }
  ],
  "bytecode": "0x608060405234801561000f575f5ffd5b50604051610816380380610816833981810160405281019061003191906100c3565b335f5f6101000a81548173ffffffffffffffffffffffffffffffffffffffff021916908373ffffffffffffffffffffffffffffffffffffffff16021790555081600181905550806002819055505f6003819055505050610101565b5f5ffd5b5f819050919050565b6100a281610090565b81146100ac575f5ffd5b50565b5f815190506100bd81610099565b92915050565b5f5f604083850312156100d9576100d861008c565b5b5f6100e6858286016100af565b92505060206100f7858286016100af565b9150509250929050565b6107088061010e5f395ff3fe608060405260043610610085575f3560e01c80639e0cea05116100585780639e0cea0514610123578063bdf3c4ae1461014d578063be63404514610177578063dac6db1c1461019f578063f2aa8218146101c957610085565b806312065fe0146100895780635bf608b8146100b3578063795612d6146100ef5780638da5cb5b146100f9575b5f5ffd5b348015610094575f5ffd5b5061009d610205565b6040516100aa919061042d565b60405180910390f35b3480156100be575f5ffd5b506100d960048036038101906100d49190610474565b61020c565b6040516100e691906104de565b60405180910390f35b6100f7610245565b005b348015610104575f5ffd5b5061010d610352565b60405161011a91906104de565b60405180910390f35b34801561012e575f5ffd5b50610137610376565b604051610144919061042d565b60405180910390f35b348015610158575f5ffd5b5061016161037c565b60405161016e919061042d565b60405180910390f35b348015610182575f5ffd5b5061019d60048036038101906101989190610474565b610382565b005b3480156101aa575f5ffd5b506101b36103df565b6040516101c0919061042d565b60405180910390f35b3480156101d4575f5ffd5b506101ef60048036038101906101ea9190610474565b6103e5565b6040516101fc91906104de565b60405180910390f35b5f47905090565b5f60045f8381526020019081526020015f205f9054906101000a900473ffffffffffffffffffffffffffffffffffffffff169050919050565b5f60025411610289576040517f08c379a000000000000000000000000000000000000000000000000000000000815260040161028090610551565b60405180910390fd5b60015434146102cd576040517f08c379a00000000000000000000000000000000000000000000000000000000081526004016102c4906105b9565b60405180910390fd5b600160025f8282546102df9190610604565b92505081905550600160035f8282546102f89190610637565b925050819055503360045f60035481526020019081526020015f205f6101000a81548173ffffffffffffffffffffffffffffffffffffffff021916908373ffffffffffffffffffffffffffffffffffffffff160217905550565b5f5f9054906101000a900473ffffffffffffffffffffffffffffffffffffffff1681565b60035481565b60025481565b5f81116103c4576040517f08c379a00000000000000000000000000000000000000000000000000000000081526004016103bb906106b4565b60405180910390fd5b8060025f8282546103d59190610637565b9250508190555050565b60015481565b6004602052805f5260405f205f915054906101000a900473ffffffffffffffffffffffffffffffffffffffff1681565b5f819050919050565b61042781610415565b82525050565b5f6020820190506104405f83018461041e565b92915050565b5f5ffd5b61045381610415565b811461045d575f5ffd5b50565b5f8135905061046e8161044a565b92915050565b5f6020828403121561048957610488610446565b5b5f61049684828501610460565b91505092915050565b5f73ffffffffffffffffffffffffffffffffffffffff82169050919050565b5f6104c88261049f565b9050919050565b6104d8816104be565b82525050565b5f6020820190506104f15f8301846104cf565b92915050565b5f82825260208201905092915050565b7f4e6f204974656d000000000000000000000000000000000000000000000000005f82015250565b5f61053b6007836104f7565b915061054682610507565b602082019050919050565b5f6020820190508181035f8301526105688161052f565b9050919050565b7f4d6f6e657920646f65736e2774206d61746368000000000000000000000000005f82015250565b5f6105a36013836104f7565b91506105ae8261056f565b602082019050919050565b5f6020820190508181035f8301526105d081610597565b9050919050565b7f4e487b71000000000000000000000000000000000000000000000000000000005f52601160045260245ffd5b5f61060e82610415565b915061061983610415565b9250828203905081811115610631576106306105d7565b5b92915050565b5f61064182610415565b915061064c83610415565b9250828201905080821115610664576106636105d7565b5b92915050565b7f416d6f756e74206d7573742062652067726561746572207468616e20300000005f82015250565b5f61069e601d836104f7565b91506106a98261066a565b602082019050919050565b5f6020820190508181035f8301526106cb81610692565b905091905056fea26469706673582212205edb1a245a808f1c4f62ab2688f4e53275f04c26c99ff1023b41413a023e62b964736f6c634300081c0033",
  "linkReferences": {},
  "deployedLinkReferences": {},
  "immutableReferences": {},
  "inputSourceName": "project/contracts/RealEstate.sol",
  "buildInfoId": "solc-0_8_28-e8dc89f8cae05afe8fafce21f0021ba3f54288df"
}